{
  "_format": "hh-sol-artifact-1",
  "contractName": "Trustified",
  "sourceName": "contracts/Trustified.sol",
  "abi": [
    {
      "inputs": [],
      "stateMutability": "nonpayable",
      "type": "constructor"
    },
    {
      "anonymous": false,
      "inputs": [
        {
          "indexed": true,
          "internalType": "address",
          "name": "owner",
          "type": "address"
        },
        {
          "indexed": true,
          "internalType": "address",
          "name": "approved",
          "type": "address"
        },
        {
          "indexed": true,
          "internalType": "uint256",
          "name": "tokenId",
          "type": "uint256"
        }
      ],
      "name": "Approval",
      "type": "event"
    },
    {
      "anonymous": false,
      "inputs": [
        {
          "indexed": true,
          "internalType": "address",
          "name": "owner",
          "type": "address"
        },
        {
          "indexed": true,
          "internalType": "address",
          "name": "operator",
          "type": "address"
        },
        {
          "indexed": false,
          "internalType": "bool",
          "name": "approved",
          "type": "bool"
        }
      ],
      "name": "ApprovalForAll",
      "type": "event"
    },
    {
      "anonymous": false,
      "inputs": [
        {
          "indexed": false,
          "internalType": "address",
          "name": "",
          "type": "address"
        },
        {
          "indexed": false,
          "internalType": "uint256",
          "name": "",
          "type": "uint256"
        }
      ],
      "name": "TokenMinted",
      "type": "event"
    },
    {
      "anonymous": false,
      "inputs": [
        {
          "indexed": false,
          "internalType": "address",
          "name": "",
          "type": "address"
        },
        {
          "indexed": false,
          "internalType": "address",
          "name": "",
          "type": "address"
        },
        {
          "indexed": false,
          "internalType": "uint256",
          "name": "",
          "type": "uint256"
        }
      ],
      "name": "TokenTransfered",
      "type": "event"
    },
    {
      "anonymous": false,
      "inputs": [
        {
          "indexed": true,
          "internalType": "address",
          "name": "from",
          "type": "address"
        },
        {
          "indexed": true,
          "internalType": "address",
          "name": "to",
          "type": "address"
        },
        {
          "indexed": true,
          "internalType": "uint256",
          "name": "tokenId",
          "type": "uint256"
        }
      ],
      "name": "Transfer",
      "type": "event"
    },
    {
      "inputs": [
        {
          "internalType": "address",
          "name": "to",
          "type": "address"
        },
        {
          "internalType": "uint256",
          "name": "tokenId",
          "type": "uint256"
        }
      ],
      "name": "approve",
      "outputs": [],
      "stateMutability": "nonpayable",
      "type": "function"
    },
    {
      "inputs": [
        {
          "internalType": "address",
          "name": "owner",
          "type": "address"
        }
      ],
      "name": "balanceOf",
      "outputs": [
        {
          "internalType": "uint256",
          "name": "",
          "type": "uint256"
        }
      ],
      "stateMutability": "view",
      "type": "function"
    },
    {
      "inputs": [
        {
          "internalType": "string[]",
          "name": "tokenUris",
          "type": "string[]"
        }
      ],
      "name": "bulkMintERC721",
      "outputs": [],
      "stateMutability": "nonpayable",
      "type": "function"
    },
    {
      "inputs": [
        {
          "internalType": "uint256",
          "name": "tokenId",
          "type": "uint256"
        }
      ],
      "name": "getApproved",
      "outputs": [
        {
          "internalType": "address",
          "name": "",
          "type": "address"
        }
      ],
      "stateMutability": "view",
      "type": "function"
    },
    {
      "inputs": [
        {
          "internalType": "uint256",
          "name": "eventId",
          "type": "uint256"
        }
      ],
      "name": "getTokenIds",
      "outputs": [
        {
          "internalType": "uint256[]",
          "name": "",
          "type": "uint256[]"
        }
      ],
      "stateMutability": "view",
      "type": "function"
    },
    {
      "inputs": [
        {
          "internalType": "address",
          "name": "owner",
          "type": "address"
        },
        {
          "internalType": "address",
          "name": "operator",
          "type": "address"
        }
      ],
      "name": "isApprovedForAll",
      "outputs": [
        {
          "internalType": "bool",
          "name": "",
          "type": "bool"
        }
      ],
      "stateMutability": "view",
      "type": "function"
    },
    {
      "inputs": [],
      "name": "name",
      "outputs": [
        {
          "internalType": "string",
          "name": "",
          "type": "string"
        }
      ],
      "stateMutability": "view",
      "type": "function"
    },
    {
      "inputs": [
        {
          "internalType": "uint256",
          "name": "tokenId",
          "type": "uint256"
        }
      ],
      "name": "ownerOf",
      "outputs": [
        {
          "internalType": "address",
          "name": "",
          "type": "address"
        }
      ],
      "stateMutability": "view",
      "type": "function"
    },
    {
      "inputs": [
        {
          "internalType": "string",
          "name": "tokenURI",
          "type": "string"
        }
      ],
      "name": "safeMint",
      "outputs": [
        {
          "internalType": "uint256",
          "name": "",
          "type": "uint256"
        }
      ],
      "stateMutability": "nonpayable",
      "type": "function"
    },
    {
      "inputs": [
        {
          "internalType": "address",
          "name": "from",
          "type": "address"
        },
        {
          "internalType": "address",
          "name": "to",
          "type": "address"
        },
        {
          "internalType": "uint256",
          "name": "tokenId",
          "type": "uint256"
        }
      ],
      "name": "safeTransferFrom",
      "outputs": [],
      "stateMutability": "nonpayable",
      "type": "function"
    },
    {
      "inputs": [
        {
          "internalType": "address",
          "name": "from",
          "type": "address"
        },
        {
          "internalType": "address",
          "name": "to",
          "type": "address"
        },
        {
          "internalType": "uint256",
          "name": "tokenId",
          "type": "uint256"
        },
        {
          "internalType": "bytes",
          "name": "data",
          "type": "bytes"
        }
      ],
      "name": "safeTransferFrom",
      "outputs": [],
      "stateMutability": "nonpayable",
      "type": "function"
    },
    {
      "inputs": [
        {
          "internalType": "address",
          "name": "operator",
          "type": "address"
        },
        {
          "internalType": "bool",
          "name": "approved",
          "type": "bool"
        }
      ],
      "name": "setApprovalForAll",
      "outputs": [],
      "stateMutability": "nonpayable",
      "type": "function"
    },
    {
      "inputs": [
        {
          "internalType": "bytes4",
          "name": "interfaceId",
          "type": "bytes4"
        }
      ],
      "name": "supportsInterface",
      "outputs": [
        {
          "internalType": "bool",
          "name": "",
          "type": "bool"
        }
      ],
      "stateMutability": "view",
      "type": "function"
    },
    {
      "inputs": [],
      "name": "symbol",
      "outputs": [
        {
          "internalType": "string",
          "name": "",
          "type": "string"
        }
      ],
      "stateMutability": "view",
      "type": "function"
    },
    {
      "inputs": [
        {
          "internalType": "uint256",
          "name": "",
          "type": "uint256"
        },
        {
          "internalType": "uint256",
          "name": "",
          "type": "uint256"
        }
      ],
      "name": "tokenIds",
      "outputs": [
        {
          "internalType": "uint256",
          "name": "",
          "type": "uint256"
        }
      ],
      "stateMutability": "view",
      "type": "function"
    },
    {
      "inputs": [
        {
          "internalType": "uint256",
          "name": "tokenId",
          "type": "uint256"
        }
      ],
      "name": "tokenURI",
      "outputs": [
        {
          "internalType": "string",
          "name": "",
          "type": "string"
        }
      ],
      "stateMutability": "view",
      "type": "function"
    },
    {
      "inputs": [
        {
          "internalType": "address",
          "name": "from",
          "type": "address"
        },
        {
          "internalType": "address",
          "name": "to",
          "type": "address"
        },
        {
          "internalType": "uint256",
          "name": "tokenId",
          "type": "uint256"
        }
      ],
      "name": "transferFrom",
      "outputs": [],
      "stateMutability": "nonpayable",
      "type": "function"
    },
    {
      "inputs": [
        {
          "internalType": "address",
          "name": "from",
          "type": "address"
        },
        {
          "internalType": "address",
          "name": "to",
          "type": "address"
        },
        {
          "internalType": "uint256",
          "name": "tokenId",
          "type": "uint256"
        }
      ],
      "name": "transferToken",
      "outputs": [],
      "stateMutability": "nonpayable",
      "type": "function"
    }
  ],
  "bytecode": "0x60806040523480156200001157600080fd5b506040518060400160405280600a81526020017f54727573746966696564000000000000000000000000000000000000000000008152506040518060400160405280600381526020017f54464e0000000000000000000000000000000000000000000000000000000000815250816000908051906020019062000096929190620000b8565b508060019080519060200190620000af929190620000b8565b505050620001cd565b828054620000c69062000168565b90600052602060002090601f016020900481019282620000ea576000855562000136565b82601f106200010557805160ff191683800117855562000136565b8280016001018555821562000136579182015b828111156200013557825182559160200191906001019062000118565b5b50905062000145919062000149565b5090565b5b80821115620001645760008160009055506001016200014a565b5090565b600060028204905060018216806200018157607f821691505b602082108114156200019857620001976200019e565b5b50919050565b7f4e487b7100000000000000000000000000000000000000000000000000000000600052602260045260246000fd5b61318980620001dd6000396000f3fe608060405234801561001057600080fd5b50600436106101165760003560e01c806370a08231116100a2578063b88d4fde11610071578063b88d4fde14610303578063c87b56dd1461031f578063e985e9c51461034f578063eed8cc351461037f578063f5537ede146103af57610116565b806370a082311461027d57806389f1aa39146102ad57806395d89b41146102c9578063a22cb465146102e757610116565b806323b872dd116100e957806323b872dd146101b557806342842e0e146101d157806357991d30146101ed5780636352211e1461021d578063695850fb1461024d57610116565b806301ffc9a71461011b57806306fdde031461014b578063081812fc14610169578063095ea7b314610199575b600080fd5b610135600480360381019061013091906122ba565b6103cb565b60405161014291906127db565b60405180910390f35b6101536104ad565b60405161016091906127f6565b60405180910390f35b610183600480360381019061017e919061234d565b61053f565b60405161019091906126f2565b60405180910390f35b6101b360048036038101906101ae919061223d565b610585565b005b6101cf60048036038101906101ca9190612137565b61069d565b005b6101eb60048036038101906101e69190612137565b6106f6565b005b6102076004803603810190610202919061234d565b610716565b60405161021491906127b9565b60405180910390f35b6102376004803603810190610232919061234d565b610781565b60405161024491906126f2565b60405180910390f35b6102676004803603810190610262919061230c565b610808565b60405161027491906129b8565b60405180910390f35b610297600480360381019061029291906120d2565b61083e565b6040516102a491906129b8565b60405180910390f35b6102c760048036038101906102c29190612279565b6108f6565b005b6102d16109f3565b6040516102de91906127f6565b60405180910390f35b61030160048036038101906102fc9190612201565b610a85565b005b61031d60048036038101906103189190612186565b610a9b565b005b6103396004803603810190610334919061234d565b610afd565b60405161034691906127f6565b60405180910390f35b610369600480360381019061036491906120fb565b610c10565b60405161037691906127db565b60405180910390f35b61039960048036038101906103949190612376565b610ca4565b6040516103a691906129b8565b60405180910390f35b6103c960048036038101906103c49190612137565b610cd5565b005b60007f80ac58cd000000000000000000000000000000000000000000000000000000007bffffffffffffffffffffffffffffffffffffffffffffffffffffffff1916827bffffffffffffffffffffffffffffffffffffffffffffffffffffffff1916148061049657507f5b5e139f000000000000000000000000000000000000000000000000000000007bffffffffffffffffffffffffffffffffffffffffffffffffffffffff1916827bffffffffffffffffffffffffffffffffffffffffffffffffffffffff1916145b806104a657506104a582610d84565b5b9050919050565b6060600080546104bc90612c42565b80601f01602080910402602001604051908101604052809291908181526020018280546104e890612c42565b80156105355780601f1061050a57610100808354040283529160200191610535565b820191906000526020600020905b81548152906001019060200180831161051857829003601f168201915b5050505050905090565b600061054a82610dee565b6004600083815260200190815260200160002060009054906101000a900473ffffffffffffffffffffffffffffffffffffffff169050919050565b600061059082610781565b90508073ffffffffffffffffffffffffffffffffffffffff168373ffffffffffffffffffffffffffffffffffffffff161415610601576040517f08c379a00000000000000000000000000000000000000000000000000000000081526004016105f890612958565b60405180910390fd5b8073ffffffffffffffffffffffffffffffffffffffff16610620610e39565b73ffffffffffffffffffffffffffffffffffffffff16148061064f575061064e81610649610e39565b610c10565b5b61068e576040517f08c379a000000000000000000000000000000000000000000000000000000000815260040161068590612978565b60405180910390fd5b6106988383610e41565b505050565b6106a78382610efa565b6106e6576040517f08c379a00000000000000000000000000000000000000000000000000000000081526004016106dd90612998565b60405180910390fd5b6106f1838383610f8f565b505050565b61071183838360405180602001604052806000815250610a9b565b505050565b60606009600083815260200190815260200160002080548060200260200160405190810160405280929190818152602001828054801561077557602002820191906000526020600020905b815481526020019060010190808311610761575b50505050509050919050565b60008061078d83611289565b9050600073ffffffffffffffffffffffffffffffffffffffff168173ffffffffffffffffffffffffffffffffffffffff1614156107ff576040517f08c379a00000000000000000000000000000000000000000000000000000000081526004016107f690612938565b60405180910390fd5b80915050919050565b60008061081560076112c6565b905061082160076112d4565b61082b30826112ea565b6108358184611508565b80915050919050565b60008073ffffffffffffffffffffffffffffffffffffffff168273ffffffffffffffffffffffffffffffffffffffff1614156108af576040517f08c379a00000000000000000000000000000000000000000000000000000000081526004016108a6906128d8565b60405180910390fd5b600360008373ffffffffffffffffffffffffffffffffffffffff1673ffffffffffffffffffffffffffffffffffffffff168152602001908152602001600020549050919050565b600061090260086112c6565b905061090e60086112d4565b60005b82518110156109b5576000610965848381518110610958577f4e487b7100000000000000000000000000000000000000000000000000000000600052603260045260246000fd5b6020026020010151610808565b9050600960008481526020019081526020016000208190806001815401808255809150506001900390600052602060002001600090919091909150555080806109ad90612ca5565b915050610911565b507fb9144c96c86541f6fa89c9f2f02495cccf4b08cd6643e26d34ee00aa586558a833826040516109e7929190612790565b60405180910390a15050565b606060018054610a0290612c42565b80601f0160208091040260200160405190810160405280929190818152602001828054610a2e90612c42565b8015610a7b5780601f10610a5057610100808354040283529160200191610a7b565b820191906000526020600020905b815481529060010190602001808311610a5e57829003601f168201915b5050505050905090565b610a97610a90610e39565b838361157c565b5050565b610aac610aa6610e39565b83610efa565b610aeb576040517f08c379a0000000000000000000000000000000000000000000000000000000008152600401610ae290612818565b60405180910390fd5b610af7848484846116e9565b50505050565b6060610b0882610dee565b6000600660008481526020019081526020016000208054610b2890612c42565b80601f0160208091040260200160405190810160405280929190818152602001828054610b5490612c42565b8015610ba15780601f10610b7657610100808354040283529160200191610ba1565b820191906000526020600020905b815481529060010190602001808311610b8457829003601f168201915b505050505090506000610bb2611745565b9050600081511415610bc8578192505050610c0b565b600082511115610bfd578082604051602001610be59291906126ce565b60405160208183030381529060405292505050610c0b565b610c068461175c565b925050505b919050565b6000600560008473ffffffffffffffffffffffffffffffffffffffff1673ffffffffffffffffffffffffffffffffffffffff16815260200190815260200160002060008373ffffffffffffffffffffffffffffffffffffffff1673ffffffffffffffffffffffffffffffffffffffff16815260200190815260200160002060009054906101000a900460ff16905092915050565b60096020528160005260406000208181548110610cc057600080fd5b90600052602060002001600091509150505481565b3073ffffffffffffffffffffffffffffffffffffffff166323b872dd8484846040518463ffffffff1660e01b8152600401610d129392919061270d565b600060405180830381600087803b158015610d2c57600080fd5b505af1158015610d40573d6000803e3d6000fd5b505050507fec61728879a33aa50b55e1f4789dcfc1c680f30a24d7b8694a9f874e242a97b4838383604051610d779392919061270d565b60405180910390a1505050565b60007f01ffc9a7000000000000000000000000000000000000000000000000000000007bffffffffffffffffffffffffffffffffffffffffffffffffffffffff1916827bffffffffffffffffffffffffffffffffffffffffffffffffffffffff1916149050919050565b610df7816117c4565b610e36576040517f08c379a0000000000000000000000000000000000000000000000000000000008152600401610e2d90612938565b60405180910390fd5b50565b600033905090565b816004600083815260200190815260200160002060006101000a81548173ffffffffffffffffffffffffffffffffffffffff021916908373ffffffffffffffffffffffffffffffffffffffff160217905550808273ffffffffffffffffffffffffffffffffffffffff16610eb483610781565b73ffffffffffffffffffffffffffffffffffffffff167f8c5be1e5ebec7d5bd14f71427d1e84f3dd0314c0f7b2291e5b200ac8c7c3b92560405160405180910390a45050565b600080610f0683610781565b90508073ffffffffffffffffffffffffffffffffffffffff168473ffffffffffffffffffffffffffffffffffffffff161480610f485750610f478185610c10565b5b80610f8657508373ffffffffffffffffffffffffffffffffffffffff16610f6e8461053f565b73ffffffffffffffffffffffffffffffffffffffff16145b91505092915050565b8273ffffffffffffffffffffffffffffffffffffffff16610faf82610781565b73ffffffffffffffffffffffffffffffffffffffff1614611005576040517f08c379a0000000000000000000000000000000000000000000000000000000008152600401610ffc90612858565b60405180910390fd5b600073ffffffffffffffffffffffffffffffffffffffff168273ffffffffffffffffffffffffffffffffffffffff161415611075576040517f08c379a000000000000000000000000000000000000000000000000000000000815260040161106c90612898565b60405180910390fd5b6110828383836001611805565b8273ffffffffffffffffffffffffffffffffffffffff166110a282610781565b73ffffffffffffffffffffffffffffffffffffffff16146110f8576040517f08c379a00000000000000000000000000000000000000000000000000000000081526004016110ef90612858565b60405180910390fd5b6004600082815260200190815260200160002060006101000a81549073ffffffffffffffffffffffffffffffffffffffff02191690556001600360008573ffffffffffffffffffffffffffffffffffffffff1673ffffffffffffffffffffffffffffffffffffffff168152602001908152602001600020600082825403925050819055506001600360008473ffffffffffffffffffffffffffffffffffffffff1673ffffffffffffffffffffffffffffffffffffffff16815260200190815260200160002060008282540192505081905550816002600083815260200190815260200160002060006101000a81548173ffffffffffffffffffffffffffffffffffffffff021916908373ffffffffffffffffffffffffffffffffffffffff160217905550808273ffffffffffffffffffffffffffffffffffffffff168473ffffffffffffffffffffffffffffffffffffffff167fddf252ad1be2c89b69c2b068fc378daa952ba7f163c4a11628f55a4df523b3ef60405160405180910390a4611284838383600161192b565b505050565b60006002600083815260200190815260200160002060009054906101000a900473ffffffffffffffffffffffffffffffffffffffff169050919050565b600081600001549050919050565b6001816000016000828254019250508190555050565b600073ffffffffffffffffffffffffffffffffffffffff168273ffffffffffffffffffffffffffffffffffffffff16141561135a576040517f08c379a000000000000000000000000000000000000000000000000000000000815260040161135190612918565b60405180910390fd5b611363816117c4565b156113a3576040517f08c379a000000000000000000000000000000000000000000000000000000000815260040161139a90612878565b60405180910390fd5b6113b1600083836001611805565b6113ba816117c4565b156113fa576040517f08c379a00000000000000000000000000000000000000000000000000000000081526004016113f190612878565b60405180910390fd5b6001600360008473ffffffffffffffffffffffffffffffffffffffff1673ffffffffffffffffffffffffffffffffffffffff16815260200190815260200160002060008282540192505081905550816002600083815260200190815260200160002060006101000a81548173ffffffffffffffffffffffffffffffffffffffff021916908373ffffffffffffffffffffffffffffffffffffffff160217905550808273ffffffffffffffffffffffffffffffffffffffff16600073ffffffffffffffffffffffffffffffffffffffff167fddf252ad1be2c89b69c2b068fc378daa952ba7f163c4a11628f55a4df523b3ef60405160405180910390a461150460008383600161192b565b5050565b611511826117c4565b611550576040517f08c379a0000000000000000000000000000000000000000000000000000000008152600401611547906128f8565b60405180910390fd5b80600660008481526020019081526020016000209080519060200190611577929190611e46565b505050565b8173ffffffffffffffffffffffffffffffffffffffff168373ffffffffffffffffffffffffffffffffffffffff1614156115eb576040517f08c379a00000000000000000000000000000000000000000000000000000000081526004016115e2906128b8565b60405180910390fd5b80600560008573ffffffffffffffffffffffffffffffffffffffff1673ffffffffffffffffffffffffffffffffffffffff16815260200190815260200160002060008473ffffffffffffffffffffffffffffffffffffffff1673ffffffffffffffffffffffffffffffffffffffff16815260200190815260200160002060006101000a81548160ff0219169083151502179055508173ffffffffffffffffffffffffffffffffffffffff168373ffffffffffffffffffffffffffffffffffffffff167f17307eab39ab6107e8899845ad3d59bd9653f200f220920489ca2b5937696c31836040516116dc91906127db565b60405180910390a3505050565b6116f4848484610f8f565b61170084848484611931565b61173f576040517f08c379a000000000000000000000000000000000000000000000000000000000815260040161173690612838565b60405180910390fd5b50505050565b606060405180602001604052806000815250905090565b606061176782610dee565b6000611771611745565b9050600081511161179157604051806020016040528060008152506117bc565b8061179b84611ac8565b6040516020016117ac9291906126ce565b6040516020818303038152906040525b915050919050565b60008073ffffffffffffffffffffffffffffffffffffffff166117e683611289565b73ffffffffffffffffffffffffffffffffffffffff1614159050919050565b600181111561192557600073ffffffffffffffffffffffffffffffffffffffff168473ffffffffffffffffffffffffffffffffffffffff16146118995780600360008673ffffffffffffffffffffffffffffffffffffffff1673ffffffffffffffffffffffffffffffffffffffff16815260200190815260200160002060008282546118919190612b58565b925050819055505b600073ffffffffffffffffffffffffffffffffffffffff168373ffffffffffffffffffffffffffffffffffffffff16146119245780600360008573ffffffffffffffffffffffffffffffffffffffff1673ffffffffffffffffffffffffffffffffffffffff168152602001908152602001600020600082825461191c9190612b02565b925050819055505b5b50505050565b50505050565b60006119528473ffffffffffffffffffffffffffffffffffffffff16611bec565b15611abb578373ffffffffffffffffffffffffffffffffffffffff1663150b7a0261197b610e39565b8786866040518563ffffffff1660e01b815260040161199d9493929190612744565b602060405180830381600087803b1580156119b757600080fd5b505af19250505080156119e857506040513d601f19601f820116820180604052508101906119e591906122e3565b60015b611a6b573d8060008114611a18576040519150601f19603f3d011682016040523d82523d6000602084013e611a1d565b606091505b50600081511415611a63576040517f08c379a0000000000000000000000000000000000000000000000000000000008152600401611a5a90612838565b60405180910390fd5b805181602001fd5b63150b7a0260e01b7bffffffffffffffffffffffffffffffffffffffffffffffffffffffff1916817bffffffffffffffffffffffffffffffffffffffffffffffffffffffff191614915050611ac0565b600190505b949350505050565b606060006001611ad784611c0f565b01905060008167ffffffffffffffff811115611b1c577f4e487b7100000000000000000000000000000000000000000000000000000000600052604160045260246000fd5b6040519080825280601f01601f191660200182016040528015611b4e5781602001600182028036833780820191505090505b509050600082602001820190505b600115611be1578080600190039150507f3031323334353637383961626364656600000000000000000000000000000000600a86061a8153600a8581611bcb577f4e487b7100000000000000000000000000000000000000000000000000000000600052601260045260246000fd5b0494506000851415611bdc57611be1565b611b5c565b819350505050919050565b6000808273ffffffffffffffffffffffffffffffffffffffff163b119050919050565b600080600090507a184f03e93ff9f4daa797ed6e38ed64bf6a1f0100000000000000008310611c93577a184f03e93ff9f4daa797ed6e38ed64bf6a1f0100000000000000008381611c89577f4e487b7100000000000000000000000000000000000000000000000000000000600052601260045260246000fd5b0492506040810190505b6d04ee2d6d415b85acef81000000008310611cf6576d04ee2d6d415b85acef81000000008381611cec577f4e487b7100000000000000000000000000000000000000000000000000000000600052601260045260246000fd5b0492506020810190505b662386f26fc100008310611d4b57662386f26fc100008381611d41577f4e487b7100000000000000000000000000000000000000000000000000000000600052601260045260246000fd5b0492506010810190505b6305f5e1008310611d9a576305f5e1008381611d90577f4e487b7100000000000000000000000000000000000000000000000000000000600052601260045260246000fd5b0492506008810190505b6127108310611de5576127108381611ddb577f4e487b7100000000000000000000000000000000000000000000000000000000600052601260045260246000fd5b0492506004810190505b60648310611e2e5760648381611e24577f4e487b7100000000000000000000000000000000000000000000000000000000600052601260045260246000fd5b0492506002810190505b600a8310611e3d576001810190505b80915050919050565b828054611e5290612c42565b90600052602060002090601f016020900481019282611e745760008555611ebb565b82601f10611e8d57805160ff1916838001178555611ebb565b82800160010185558215611ebb579182015b82811115611eba578251825591602001919060010190611e9f565b5b509050611ec89190611ecc565b5090565b5b80821115611ee5576000816000905550600101611ecd565b5090565b6000611efc611ef7846129f8565b6129d3565b90508083825260208201905082856020860282011115611f1b57600080fd5b60005b85811015611f6557813567ffffffffffffffff811115611f3d57600080fd5b808601611f4a8982612093565b85526020850194506020840193505050600181019050611f1e565b5050509392505050565b6000611f82611f7d84612a24565b6129d3565b905082815260208101848484011115611f9a57600080fd5b611fa5848285612c00565b509392505050565b6000611fc0611fbb84612a55565b6129d3565b905082815260208101848484011115611fd857600080fd5b611fe3848285612c00565b509392505050565b600081359050611ffa816130f7565b92915050565b600082601f83011261201157600080fd5b8135612021848260208601611ee9565b91505092915050565b6000813590506120398161310e565b92915050565b60008135905061204e81613125565b92915050565b60008151905061206381613125565b92915050565b600082601f83011261207a57600080fd5b813561208a848260208601611f6f565b91505092915050565b600082601f8301126120a457600080fd5b81356120b4848260208601611fad565b91505092915050565b6000813590506120cc8161313c565b92915050565b6000602082840312156120e457600080fd5b60006120f284828501611feb565b91505092915050565b6000806040838503121561210e57600080fd5b600061211c85828601611feb565b925050602061212d85828601611feb565b9150509250929050565b60008060006060848603121561214c57600080fd5b600061215a86828701611feb565b935050602061216b86828701611feb565b925050604061217c868287016120bd565b9150509250925092565b6000806000806080858703121561219c57600080fd5b60006121aa87828801611feb565b94505060206121bb87828801611feb565b93505060406121cc878288016120bd565b925050606085013567ffffffffffffffff8111156121e957600080fd5b6121f587828801612069565b91505092959194509250565b6000806040838503121561221457600080fd5b600061222285828601611feb565b92505060206122338582860161202a565b9150509250929050565b6000806040838503121561225057600080fd5b600061225e85828601611feb565b925050602061226f858286016120bd565b9150509250929050565b60006020828403121561228b57600080fd5b600082013567ffffffffffffffff8111156122a557600080fd5b6122b184828501612000565b91505092915050565b6000602082840312156122cc57600080fd5b60006122da8482850161203f565b91505092915050565b6000602082840312156122f557600080fd5b600061230384828501612054565b91505092915050565b60006020828403121561231e57600080fd5b600082013567ffffffffffffffff81111561233857600080fd5b61234484828501612093565b91505092915050565b60006020828403121561235f57600080fd5b600061236d848285016120bd565b91505092915050565b6000806040838503121561238957600080fd5b6000612397858286016120bd565b92505060206123a8858286016120bd565b9150509250929050565b60006123be83836126b0565b60208301905092915050565b6123d381612b8c565b82525050565b60006123e482612a96565b6123ee8185612ac4565b93506123f983612a86565b8060005b8381101561242a57815161241188826123b2565b975061241c83612ab7565b9250506001810190506123fd565b5085935050505092915050565b61244081612b9e565b82525050565b600061245182612aa1565b61245b8185612ad5565b935061246b818560208601612c0f565b61247481612d7b565b840191505092915050565b600061248a82612aac565b6124948185612ae6565b93506124a4818560208601612c0f565b6124ad81612d7b565b840191505092915050565b60006124c382612aac565b6124cd8185612af7565b93506124dd818560208601612c0f565b80840191505092915050565b60006124f6602d83612ae6565b915061250182612d8c565b604082019050919050565b6000612519603283612ae6565b915061252482612ddb565b604082019050919050565b600061253c602583612ae6565b915061254782612e2a565b604082019050919050565b600061255f601c83612ae6565b915061256a82612e79565b602082019050919050565b6000612582602483612ae6565b915061258d82612ea2565b604082019050919050565b60006125a5601983612ae6565b91506125b082612ef1565b602082019050919050565b60006125c8602983612ae6565b91506125d382612f1a565b604082019050919050565b60006125eb602e83612ae6565b91506125f682612f69565b604082019050919050565b600061260e602083612ae6565b915061261982612fb8565b602082019050919050565b6000612631601883612ae6565b915061263c82612fe1565b602082019050919050565b6000612654602183612ae6565b915061265f8261300a565b604082019050919050565b6000612677603d83612ae6565b915061268282613059565b604082019050919050565b600061269a603183612ae6565b91506126a5826130a8565b604082019050919050565b6126b981612bf6565b82525050565b6126c881612bf6565b82525050565b60006126da82856124b8565b91506126e682846124b8565b91508190509392505050565b600060208201905061270760008301846123ca565b92915050565b600060608201905061272260008301866123ca565b61272f60208301856123ca565b61273c60408301846126bf565b949350505050565b600060808201905061275960008301876123ca565b61276660208301866123ca565b61277360408301856126bf565b81810360608301526127858184612446565b905095945050505050565b60006040820190506127a560008301856123ca565b6127b260208301846126bf565b9392505050565b600060208201905081810360008301526127d381846123d9565b905092915050565b60006020820190506127f06000830184612437565b92915050565b60006020820190508181036000830152612810818461247f565b905092915050565b60006020820190508181036000830152612831816124e9565b9050919050565b600060208201905081810360008301526128518161250c565b9050919050565b600060208201905081810360008301526128718161252f565b9050919050565b6000602082019050818103600083015261289181612552565b9050919050565b600060208201905081810360008301526128b181612575565b9050919050565b600060208201905081810360008301526128d181612598565b9050919050565b600060208201905081810360008301526128f1816125bb565b9050919050565b60006020820190508181036000830152612911816125de565b9050919050565b6000602082019050818103600083015261293181612601565b9050919050565b6000602082019050818103600083015261295181612624565b9050919050565b6000602082019050818103600083015261297181612647565b9050919050565b600060208201905081810360008301526129918161266a565b9050919050565b600060208201905081810360008301526129b18161268d565b9050919050565b60006020820190506129cd60008301846126bf565b92915050565b60006129dd6129ee565b90506129e98282612c74565b919050565b6000604051905090565b600067ffffffffffffffff821115612a1357612a12612d4c565b5b602082029050602081019050919050565b600067ffffffffffffffff821115612a3f57612a3e612d4c565b5b612a4882612d7b565b9050602081019050919050565b600067ffffffffffffffff821115612a7057612a6f612d4c565b5b612a7982612d7b565b9050602081019050919050565b6000819050602082019050919050565b600081519050919050565b600081519050919050565b600081519050919050565b6000602082019050919050565b600082825260208201905092915050565b600082825260208201905092915050565b600082825260208201905092915050565b600081905092915050565b6000612b0d82612bf6565b9150612b1883612bf6565b9250827fffffffffffffffffffffffffffffffffffffffffffffffffffffffffffffffff03821115612b4d57612b4c612cee565b5b828201905092915050565b6000612b6382612bf6565b9150612b6e83612bf6565b925082821015612b8157612b80612cee565b5b828203905092915050565b6000612b9782612bd6565b9050919050565b60008115159050919050565b60007fffffffff0000000000000000000000000000000000000000000000000000000082169050919050565b600073ffffffffffffffffffffffffffffffffffffffff82169050919050565b6000819050919050565b82818337600083830152505050565b60005b83811015612c2d578082015181840152602081019050612c12565b83811115612c3c576000848401525b50505050565b60006002820490506001821680612c5a57607f821691505b60208210811415612c6e57612c6d612d1d565b5b50919050565b612c7d82612d7b565b810181811067ffffffffffffffff82111715612c9c57612c9b612d4c565b5b80604052505050565b6000612cb082612bf6565b91507fffffffffffffffffffffffffffffffffffffffffffffffffffffffffffffffff821415612ce357612ce2612cee565b5b600182019050919050565b7f4e487b7100000000000000000000000000000000000000000000000000000000600052601160045260246000fd5b7f4e487b7100000000000000000000000000000000000000000000000000000000600052602260045260246000fd5b7f4e487b7100000000000000000000000000000000000000000000000000000000600052604160045260246000fd5b6000601f19601f8301169050919050565b7f4552433732313a2063616c6c6572206973206e6f7420746f6b656e206f776e6560008201527f72206f7220617070726f76656400000000000000000000000000000000000000602082015250565b7f4552433732313a207472616e7366657220746f206e6f6e20455243373231526560008201527f63656976657220696d706c656d656e7465720000000000000000000000000000602082015250565b7f4552433732313a207472616e736665722066726f6d20696e636f72726563742060008201527f6f776e6572000000000000000000000000000000000000000000000000000000602082015250565b7f4552433732313a20746f6b656e20616c7265616479206d696e74656400000000600082015250565b7f4552433732313a207472616e7366657220746f20746865207a65726f2061646460008201527f7265737300000000000000000000000000000000000000000000000000000000602082015250565b7f4552433732313a20617070726f766520746f2063616c6c657200000000000000600082015250565b7f4552433732313a2061646472657373207a65726f206973206e6f74206120766160008201527f6c6964206f776e65720000000000000000000000000000000000000000000000602082015250565b7f45524337323155524953746f726167653a2055524920736574206f66206e6f6e60008201527f6578697374656e7420746f6b656e000000000000000000000000000000000000602082015250565b7f4552433732313a206d696e7420746f20746865207a65726f2061646472657373600082015250565b7f4552433732313a20696e76616c696420746f6b656e2049440000000000000000600082015250565b7f4552433732313a20617070726f76616c20746f2063757272656e74206f776e6560008201527f7200000000000000000000000000000000000000000000000000000000000000602082015250565b7f4552433732313a20617070726f76652063616c6c6572206973206e6f7420746f60008201527f6b656e206f776e6572206f7220617070726f76656420666f7220616c6c000000602082015250565b7f4552433732313a207472616e736665722063616c6c6572206973206e6f74206f60008201527f776e6572206e6f7220617070726f766564000000000000000000000000000000602082015250565b61310081612b8c565b811461310b57600080fd5b50565b61311781612b9e565b811461312257600080fd5b50565b61312e81612baa565b811461313957600080fd5b50565b61314581612bf6565b811461315057600080fd5b5056fea264697066735822122015f75dda89bbca28a3e1659b1d7eebc6a4554ffa8fb94ecb9e07b8e0a8678a5264736f6c63430008040033",
  "linkReferences": {},
  "deployedLinkReferences": {}
}