{
  "_format": "hh-sol-artifact-1",
  "contractName": "TrustifiedNonTransferable",
  "sourceName": "contracts/Trustified-NonTransferable.sol",
  "abi": [
    {
      "inputs": [],
      "stateMutability": "nonpayable",
      "type": "constructor"
    },
    {
      "anonymous": false,
      "inputs": [
        {
          "indexed": true,
          "internalType": "address",
          "name": "owner",
          "type": "address"
        },
        {
          "indexed": true,
          "internalType": "address",
          "name": "approved",
          "type": "address"
        },
        {
          "indexed": true,
          "internalType": "uint256",
          "name": "tokenId",
          "type": "uint256"
        }
      ],
      "name": "Approval",
      "type": "event"
    },
    {
      "anonymous": false,
      "inputs": [
        {
          "indexed": true,
          "internalType": "address",
          "name": "owner",
          "type": "address"
        },
        {
          "indexed": true,
          "internalType": "address",
          "name": "operator",
          "type": "address"
        },
        {
          "indexed": false,
          "internalType": "bool",
          "name": "approved",
          "type": "bool"
        }
      ],
      "name": "ApprovalForAll",
      "type": "event"
    },
    {
      "anonymous": false,
      "inputs": [
        {
          "indexed": false,
          "internalType": "address",
          "name": "",
          "type": "address"
        },
        {
          "indexed": false,
          "internalType": "uint256",
          "name": "",
          "type": "uint256"
        }
      ],
      "name": "TokenMinted",
      "type": "event"
    },
    {
      "anonymous": false,
      "inputs": [
        {
          "indexed": false,
          "internalType": "address",
          "name": "",
          "type": "address"
        },
        {
          "indexed": false,
          "internalType": "address",
          "name": "",
          "type": "address"
        },
        {
          "indexed": false,
          "internalType": "uint256",
          "name": "",
          "type": "uint256"
        }
      ],
      "name": "TokenTransfered",
      "type": "event"
    },
    {
      "anonymous": false,
      "inputs": [
        {
          "indexed": true,
          "internalType": "address",
          "name": "from",
          "type": "address"
        },
        {
          "indexed": true,
          "internalType": "address",
          "name": "to",
          "type": "address"
        },
        {
          "indexed": true,
          "internalType": "uint256",
          "name": "tokenId",
          "type": "uint256"
        }
      ],
      "name": "Transfer",
      "type": "event"
    },
    {
      "inputs": [
        {
          "internalType": "address",
          "name": "to",
          "type": "address"
        },
        {
          "internalType": "uint256",
          "name": "tokenId",
          "type": "uint256"
        }
      ],
      "name": "approve",
      "outputs": [],
      "stateMutability": "nonpayable",
      "type": "function"
    },
    {
      "inputs": [
        {
          "internalType": "address",
          "name": "owner",
          "type": "address"
        }
      ],
      "name": "balanceOf",
      "outputs": [
        {
          "internalType": "uint256",
          "name": "",
          "type": "uint256"
        }
      ],
      "stateMutability": "view",
      "type": "function"
    },
    {
      "inputs": [
        {
          "internalType": "string[]",
          "name": "tokenUris",
          "type": "string[]"
        }
      ],
      "name": "bulkMintERC721",
      "outputs": [],
      "stateMutability": "nonpayable",
      "type": "function"
    },
    {
      "inputs": [
        {
          "internalType": "uint256",
          "name": "tokenId",
          "type": "uint256"
        }
      ],
      "name": "getApproved",
      "outputs": [
        {
          "internalType": "address",
          "name": "",
          "type": "address"
        }
      ],
      "stateMutability": "view",
      "type": "function"
    },
    {
      "inputs": [
        {
          "internalType": "uint256",
          "name": "eventId",
          "type": "uint256"
        }
      ],
      "name": "getTokenIds",
      "outputs": [
        {
          "internalType": "uint256[]",
          "name": "",
          "type": "uint256[]"
        }
      ],
      "stateMutability": "view",
      "type": "function"
    },
    {
      "inputs": [
        {
          "internalType": "address",
          "name": "owner",
          "type": "address"
        },
        {
          "internalType": "address",
          "name": "operator",
          "type": "address"
        }
      ],
      "name": "isApprovedForAll",
      "outputs": [
        {
          "internalType": "bool",
          "name": "",
          "type": "bool"
        }
      ],
      "stateMutability": "view",
      "type": "function"
    },
    {
      "inputs": [],
      "name": "name",
      "outputs": [
        {
          "internalType": "string",
          "name": "",
          "type": "string"
        }
      ],
      "stateMutability": "view",
      "type": "function"
    },
    {
      "inputs": [
        {
          "internalType": "uint256",
          "name": "tokenId",
          "type": "uint256"
        }
      ],
      "name": "ownerOf",
      "outputs": [
        {
          "internalType": "address",
          "name": "",
          "type": "address"
        }
      ],
      "stateMutability": "view",
      "type": "function"
    },
    {
      "inputs": [
        {
          "internalType": "string",
          "name": "tokenURI",
          "type": "string"
        }
      ],
      "name": "safeMint",
      "outputs": [
        {
          "internalType": "uint256",
          "name": "",
          "type": "uint256"
        }
      ],
      "stateMutability": "nonpayable",
      "type": "function"
    },
    {
      "inputs": [
        {
          "internalType": "address",
          "name": "from",
          "type": "address"
        },
        {
          "internalType": "address",
          "name": "to",
          "type": "address"
        },
        {
          "internalType": "uint256",
          "name": "tokenId",
          "type": "uint256"
        }
      ],
      "name": "safeTransferFrom",
      "outputs": [],
      "stateMutability": "nonpayable",
      "type": "function"
    },
    {
      "inputs": [
        {
          "internalType": "address",
          "name": "from",
          "type": "address"
        },
        {
          "internalType": "address",
          "name": "to",
          "type": "address"
        },
        {
          "internalType": "uint256",
          "name": "tokenId",
          "type": "uint256"
        },
        {
          "internalType": "bytes",
          "name": "data",
          "type": "bytes"
        }
      ],
      "name": "safeTransferFrom",
      "outputs": [],
      "stateMutability": "nonpayable",
      "type": "function"
    },
    {
      "inputs": [
        {
          "internalType": "address",
          "name": "operator",
          "type": "address"
        },
        {
          "internalType": "bool",
          "name": "approved",
          "type": "bool"
        }
      ],
      "name": "setApprovalForAll",
      "outputs": [],
      "stateMutability": "nonpayable",
      "type": "function"
    },
    {
      "inputs": [
        {
          "internalType": "bytes4",
          "name": "interfaceId",
          "type": "bytes4"
        }
      ],
      "name": "supportsInterface",
      "outputs": [
        {
          "internalType": "bool",
          "name": "",
          "type": "bool"
        }
      ],
      "stateMutability": "view",
      "type": "function"
    },
    {
      "inputs": [],
      "name": "symbol",
      "outputs": [
        {
          "internalType": "string",
          "name": "",
          "type": "string"
        }
      ],
      "stateMutability": "view",
      "type": "function"
    },
    {
      "inputs": [
        {
          "internalType": "uint256",
          "name": "",
          "type": "uint256"
        },
        {
          "internalType": "uint256",
          "name": "",
          "type": "uint256"
        }
      ],
      "name": "tokenIds",
      "outputs": [
        {
          "internalType": "uint256",
          "name": "",
          "type": "uint256"
        }
      ],
      "stateMutability": "view",
      "type": "function"
    },
    {
      "inputs": [
        {
          "internalType": "uint256",
          "name": "tokenId",
          "type": "uint256"
        }
      ],
      "name": "tokenURI",
      "outputs": [
        {
          "internalType": "string",
          "name": "",
          "type": "string"
        }
      ],
      "stateMutability": "view",
      "type": "function"
    },
    {
      "inputs": [
        {
          "internalType": "address",
          "name": "from",
          "type": "address"
        },
        {
          "internalType": "address",
          "name": "to",
          "type": "address"
        },
        {
          "internalType": "uint256",
          "name": "tokenId",
          "type": "uint256"
        }
      ],
      "name": "transferFrom",
      "outputs": [],
      "stateMutability": "nonpayable",
      "type": "function"
    },
    {
      "inputs": [
        {
          "internalType": "address",
          "name": "from",
          "type": "address"
        },
        {
          "internalType": "address",
          "name": "to",
          "type": "address"
        },
        {
          "internalType": "uint256",
          "name": "tokenId",
          "type": "uint256"
        }
      ],
      "name": "transferToken",
      "outputs": [],
      "stateMutability": "nonpayable",
      "type": "function"
    }
  ],
  "bytecode": "0x60806040523480156200001157600080fd5b506040518060400160405280600a81526020017f54727573746966696564000000000000000000000000000000000000000000008152506040518060400160405280600381526020017f54464e0000000000000000000000000000000000000000000000000000000000815250816000908051906020019062000096929190620000b8565b508060019080519060200190620000af929190620000b8565b505050620001cd565b828054620000c69062000168565b90600052602060002090601f016020900481019282620000ea576000855562000136565b82601f106200010557805160ff191683800117855562000136565b8280016001018555821562000136579182015b828111156200013557825182559160200191906001019062000118565b5b50905062000145919062000149565b5090565b5b80821115620001645760008160009055506001016200014a565b5090565b600060028204905060018216806200018157607f821691505b602082108114156200019857620001976200019e565b5b50919050565b7f4e487b7100000000000000000000000000000000000000000000000000000000600052602260045260246000fd5b6132af80620001dd6000396000f3fe608060405234801561001057600080fd5b50600436106101165760003560e01c806370a08231116100a2578063b88d4fde11610071578063b88d4fde14610303578063c87b56dd1461031f578063e985e9c51461034f578063eed8cc351461037f578063f5537ede146103af57610116565b806370a082311461027d57806389f1aa39146102ad57806395d89b41146102c9578063a22cb465146102e757610116565b806323b872dd116100e957806323b872dd146101b557806342842e0e146101d157806357991d30146101ed5780636352211e1461021d578063695850fb1461024d57610116565b806301ffc9a71461011b57806306fdde031461014b578063081812fc14610169578063095ea7b314610199575b600080fd5b6101356004803603810190610130919061234e565b6103cb565b6040516101429190612892565b60405180910390f35b6101536104ad565b60405161016091906128ad565b60405180910390f35b610183600480360381019061017e91906123e1565b61053f565b60405161019091906127a9565b60405180910390f35b6101b360048036038101906101ae91906122d1565b610585565b005b6101cf60048036038101906101ca91906121cb565b61069d565b005b6101eb60048036038101906101e691906121cb565b6106f6565b005b610207600480360381019061020291906123e1565b610716565b6040516102149190612870565b60405180910390f35b610237600480360381019061023291906123e1565b610781565b60405161024491906127a9565b60405180910390f35b610267600480360381019061026291906123a0565b610808565b6040516102749190612a8f565b60405180910390f35b61029760048036038101906102929190612166565b61083e565b6040516102a49190612a8f565b60405180910390f35b6102c760048036038101906102c2919061230d565b6108f6565b005b6102d16109f3565b6040516102de91906128ad565b60405180910390f35b61030160048036038101906102fc9190612295565b610a85565b005b61031d6004803603810190610318919061221a565b610a9b565b005b610339600480360381019061033491906123e1565b610afd565b60405161034691906128ad565b60405180910390f35b6103696004803603810190610364919061218f565b610c10565b6040516103769190612892565b60405180910390f35b6103996004803603810190610394919061240a565b610ca4565b6040516103a69190612a8f565b60405180910390f35b6103c960048036038101906103c491906121cb565b610cd5565b005b60007f80ac58cd000000000000000000000000000000000000000000000000000000007bffffffffffffffffffffffffffffffffffffffffffffffffffffffff1916827bffffffffffffffffffffffffffffffffffffffffffffffffffffffff1916148061049657507f5b5e139f000000000000000000000000000000000000000000000000000000007bffffffffffffffffffffffffffffffffffffffffffffffffffffffff1916827bffffffffffffffffffffffffffffffffffffffffffffffffffffffff1916145b806104a657506104a582610e18565b5b9050919050565b6060600080546104bc90612d19565b80601f01602080910402602001604051908101604052809291908181526020018280546104e890612d19565b80156105355780601f1061050a57610100808354040283529160200191610535565b820191906000526020600020905b81548152906001019060200180831161051857829003601f168201915b5050505050905090565b600061054a82610e82565b6004600083815260200190815260200160002060009054906101000a900473ffffffffffffffffffffffffffffffffffffffff169050919050565b600061059082610781565b90508073ffffffffffffffffffffffffffffffffffffffff168373ffffffffffffffffffffffffffffffffffffffff161415610601576040517f08c379a00000000000000000000000000000000000000000000000000000000081526004016105f890612a0f565b60405180910390fd5b8073ffffffffffffffffffffffffffffffffffffffff16610620610ecd565b73ffffffffffffffffffffffffffffffffffffffff16148061064f575061064e81610649610ecd565b610c10565b5b61068e576040517f08c379a000000000000000000000000000000000000000000000000000000000815260040161068590612a2f565b60405180910390fd5b6106988383610ed5565b505050565b6106a78382610f8e565b6106e6576040517f08c379a00000000000000000000000000000000000000000000000000000000081526004016106dd90612a4f565b60405180910390fd5b6106f1838383611023565b505050565b61071183838360405180602001604052806000815250610a9b565b505050565b60606009600083815260200190815260200160002080548060200260200160405190810160405280929190818152602001828054801561077557602002820191906000526020600020905b815481526020019060010190808311610761575b50505050509050919050565b60008061078d8361131d565b9050600073ffffffffffffffffffffffffffffffffffffffff168173ffffffffffffffffffffffffffffffffffffffff1614156107ff576040517f08c379a00000000000000000000000000000000000000000000000000000000081526004016107f6906129ef565b60405180910390fd5b80915050919050565b600080610815600761135a565b90506108216007611368565b61082b308261137e565b610835818461159c565b80915050919050565b60008073ffffffffffffffffffffffffffffffffffffffff168273ffffffffffffffffffffffffffffffffffffffff1614156108af576040517f08c379a00000000000000000000000000000000000000000000000000000000081526004016108a69061298f565b60405180910390fd5b600360008373ffffffffffffffffffffffffffffffffffffffff1673ffffffffffffffffffffffffffffffffffffffff168152602001908152602001600020549050919050565b6000610902600861135a565b905061090e6008611368565b60005b82518110156109b5576000610965848381518110610958577f4e487b7100000000000000000000000000000000000000000000000000000000600052603260045260246000fd5b6020026020010151610808565b9050600960008481526020019081526020016000208190806001815401808255809150506001900390600052602060002001600090919091909150555080806109ad90612d7c565b915050610911565b507fb9144c96c86541f6fa89c9f2f02495cccf4b08cd6643e26d34ee00aa586558a833826040516109e7929190612847565b60405180910390a15050565b606060018054610a0290612d19565b80601f0160208091040260200160405190810160405280929190818152602001828054610a2e90612d19565b8015610a7b5780601f10610a5057610100808354040283529160200191610a7b565b820191906000526020600020905b815481529060010190602001808311610a5e57829003601f168201915b5050505050905090565b610a97610a90610ecd565b8383611610565b5050565b610aac610aa6610ecd565b83610f8e565b610aeb576040517f08c379a0000000000000000000000000000000000000000000000000000000008152600401610ae2906128cf565b60405180910390fd5b610af78484848461177d565b50505050565b6060610b0882610e82565b6000600660008481526020019081526020016000208054610b2890612d19565b80601f0160208091040260200160405190810160405280929190818152602001828054610b5490612d19565b8015610ba15780601f10610b7657610100808354040283529160200191610ba1565b820191906000526020600020905b815481529060010190602001808311610b8457829003601f168201915b505050505090506000610bb26117d9565b9050600081511415610bc8578192505050610c0b565b600082511115610bfd578082604051602001610be5929190612785565b60405160208183030381529060405292505050610c0b565b610c06846117f0565b925050505b919050565b6000600560008473ffffffffffffffffffffffffffffffffffffffff1673ffffffffffffffffffffffffffffffffffffffff16815260200190815260200160002060008373ffffffffffffffffffffffffffffffffffffffff1673ffffffffffffffffffffffffffffffffffffffff16815260200190815260200160002060009054906101000a900460ff16905092915050565b60096020528160005260406000208181548110610cc057600080fd5b90600052602060002001600091509150505481565b60011515600a600083815260200190815260200160002060009054906101000a900460ff1615151415610d3d576040517f08c379a0000000000000000000000000000000000000000000000000000000008152600401610d3490612a6f565b60405180910390fd5b3073ffffffffffffffffffffffffffffffffffffffff166323b872dd8484846040518463ffffffff1660e01b8152600401610d7a939291906127c4565b600060405180830381600087803b158015610d9457600080fd5b505af1158015610da8573d6000803e3d6000fd5b505050507fec61728879a33aa50b55e1f4789dcfc1c680f30a24d7b8694a9f874e242a97b4838383604051610ddf939291906127c4565b60405180910390a16001600a600083815260200190815260200160002060006101000a81548160ff021916908315150217905550505050565b60007f01ffc9a7000000000000000000000000000000000000000000000000000000007bffffffffffffffffffffffffffffffffffffffffffffffffffffffff1916827bffffffffffffffffffffffffffffffffffffffffffffffffffffffff1916149050919050565b610e8b81611858565b610eca576040517f08c379a0000000000000000000000000000000000000000000000000000000008152600401610ec1906129ef565b60405180910390fd5b50565b600033905090565b816004600083815260200190815260200160002060006101000a81548173ffffffffffffffffffffffffffffffffffffffff021916908373ffffffffffffffffffffffffffffffffffffffff160217905550808273ffffffffffffffffffffffffffffffffffffffff16610f4883610781565b73ffffffffffffffffffffffffffffffffffffffff167f8c5be1e5ebec7d5bd14f71427d1e84f3dd0314c0f7b2291e5b200ac8c7c3b92560405160405180910390a45050565b600080610f9a83610781565b90508073ffffffffffffffffffffffffffffffffffffffff168473ffffffffffffffffffffffffffffffffffffffff161480610fdc5750610fdb8185610c10565b5b8061101a57508373ffffffffffffffffffffffffffffffffffffffff166110028461053f565b73ffffffffffffffffffffffffffffffffffffffff16145b91505092915050565b8273ffffffffffffffffffffffffffffffffffffffff1661104382610781565b73ffffffffffffffffffffffffffffffffffffffff1614611099576040517f08c379a00000000000000000000000000000000000000000000000000000000081526004016110909061290f565b60405180910390fd5b600073ffffffffffffffffffffffffffffffffffffffff168273ffffffffffffffffffffffffffffffffffffffff161415611109576040517f08c379a00000000000000000000000000000000000000000000000000000000081526004016111009061294f565b60405180910390fd5b6111168383836001611899565b8273ffffffffffffffffffffffffffffffffffffffff1661113682610781565b73ffffffffffffffffffffffffffffffffffffffff161461118c576040517f08c379a00000000000000000000000000000000000000000000000000000000081526004016111839061290f565b60405180910390fd5b6004600082815260200190815260200160002060006101000a81549073ffffffffffffffffffffffffffffffffffffffff02191690556001600360008573ffffffffffffffffffffffffffffffffffffffff1673ffffffffffffffffffffffffffffffffffffffff168152602001908152602001600020600082825403925050819055506001600360008473ffffffffffffffffffffffffffffffffffffffff1673ffffffffffffffffffffffffffffffffffffffff16815260200190815260200160002060008282540192505081905550816002600083815260200190815260200160002060006101000a81548173ffffffffffffffffffffffffffffffffffffffff021916908373ffffffffffffffffffffffffffffffffffffffff160217905550808273ffffffffffffffffffffffffffffffffffffffff168473ffffffffffffffffffffffffffffffffffffffff167fddf252ad1be2c89b69c2b068fc378daa952ba7f163c4a11628f55a4df523b3ef60405160405180910390a461131883838360016119bf565b505050565b60006002600083815260200190815260200160002060009054906101000a900473ffffffffffffffffffffffffffffffffffffffff169050919050565b600081600001549050919050565b6001816000016000828254019250508190555050565b600073ffffffffffffffffffffffffffffffffffffffff168273ffffffffffffffffffffffffffffffffffffffff1614156113ee576040517f08c379a00000000000000000000000000000000000000000000000000000000081526004016113e5906129cf565b60405180910390fd5b6113f781611858565b15611437576040517f08c379a000000000000000000000000000000000000000000000000000000000815260040161142e9061292f565b60405180910390fd5b611445600083836001611899565b61144e81611858565b1561148e576040517f08c379a00000000000000000000000000000000000000000000000000000000081526004016114859061292f565b60405180910390fd5b6001600360008473ffffffffffffffffffffffffffffffffffffffff1673ffffffffffffffffffffffffffffffffffffffff16815260200190815260200160002060008282540192505081905550816002600083815260200190815260200160002060006101000a81548173ffffffffffffffffffffffffffffffffffffffff021916908373ffffffffffffffffffffffffffffffffffffffff160217905550808273ffffffffffffffffffffffffffffffffffffffff16600073ffffffffffffffffffffffffffffffffffffffff167fddf252ad1be2c89b69c2b068fc378daa952ba7f163c4a11628f55a4df523b3ef60405160405180910390a46115986000838360016119bf565b5050565b6115a582611858565b6115e4576040517f08c379a00000000000000000000000000000000000000000000000000000000081526004016115db906129af565b60405180910390fd5b8060066000848152602001908152602001600020908051906020019061160b929190611eda565b505050565b8173ffffffffffffffffffffffffffffffffffffffff168373ffffffffffffffffffffffffffffffffffffffff16141561167f576040517f08c379a00000000000000000000000000000000000000000000000000000000081526004016116769061296f565b60405180910390fd5b80600560008573ffffffffffffffffffffffffffffffffffffffff1673ffffffffffffffffffffffffffffffffffffffff16815260200190815260200160002060008473ffffffffffffffffffffffffffffffffffffffff1673ffffffffffffffffffffffffffffffffffffffff16815260200190815260200160002060006101000a81548160ff0219169083151502179055508173ffffffffffffffffffffffffffffffffffffffff168373ffffffffffffffffffffffffffffffffffffffff167f17307eab39ab6107e8899845ad3d59bd9653f200f220920489ca2b5937696c31836040516117709190612892565b60405180910390a3505050565b611788848484611023565b611794848484846119c5565b6117d3576040517f08c379a00000000000000000000000000000000000000000000000000000000081526004016117ca906128ef565b60405180910390fd5b50505050565b606060405180602001604052806000815250905090565b60606117fb82610e82565b60006118056117d9565b905060008151116118255760405180602001604052806000815250611850565b8061182f84611b5c565b604051602001611840929190612785565b6040516020818303038152906040525b915050919050565b60008073ffffffffffffffffffffffffffffffffffffffff1661187a8361131d565b73ffffffffffffffffffffffffffffffffffffffff1614159050919050565b60018111156119b957600073ffffffffffffffffffffffffffffffffffffffff168473ffffffffffffffffffffffffffffffffffffffff161461192d5780600360008673ffffffffffffffffffffffffffffffffffffffff1673ffffffffffffffffffffffffffffffffffffffff16815260200190815260200160002060008282546119259190612c2f565b925050819055505b600073ffffffffffffffffffffffffffffffffffffffff168373ffffffffffffffffffffffffffffffffffffffff16146119b85780600360008573ffffffffffffffffffffffffffffffffffffffff1673ffffffffffffffffffffffffffffffffffffffff16815260200190815260200160002060008282546119b09190612bd9565b925050819055505b5b50505050565b50505050565b60006119e68473ffffffffffffffffffffffffffffffffffffffff16611c80565b15611b4f578373ffffffffffffffffffffffffffffffffffffffff1663150b7a02611a0f610ecd565b8786866040518563ffffffff1660e01b8152600401611a3194939291906127fb565b602060405180830381600087803b158015611a4b57600080fd5b505af1925050508015611a7c57506040513d601f19601f82011682018060405250810190611a799190612377565b60015b611aff573d8060008114611aac576040519150601f19603f3d011682016040523d82523d6000602084013e611ab1565b606091505b50600081511415611af7576040517f08c379a0000000000000000000000000000000000000000000000000000000008152600401611aee906128ef565b60405180910390fd5b805181602001fd5b63150b7a0260e01b7bffffffffffffffffffffffffffffffffffffffffffffffffffffffff1916817bffffffffffffffffffffffffffffffffffffffffffffffffffffffff191614915050611b54565b600190505b949350505050565b606060006001611b6b84611ca3565b01905060008167ffffffffffffffff811115611bb0577f4e487b7100000000000000000000000000000000000000000000000000000000600052604160045260246000fd5b6040519080825280601f01601f191660200182016040528015611be25781602001600182028036833780820191505090505b509050600082602001820190505b600115611c75578080600190039150507f3031323334353637383961626364656600000000000000000000000000000000600a86061a8153600a8581611c5f577f4e487b7100000000000000000000000000000000000000000000000000000000600052601260045260246000fd5b0494506000851415611c7057611c75565b611bf0565b819350505050919050565b6000808273ffffffffffffffffffffffffffffffffffffffff163b119050919050565b600080600090507a184f03e93ff9f4daa797ed6e38ed64bf6a1f0100000000000000008310611d27577a184f03e93ff9f4daa797ed6e38ed64bf6a1f0100000000000000008381611d1d577f4e487b7100000000000000000000000000000000000000000000000000000000600052601260045260246000fd5b0492506040810190505b6d04ee2d6d415b85acef81000000008310611d8a576d04ee2d6d415b85acef81000000008381611d80577f4e487b7100000000000000000000000000000000000000000000000000000000600052601260045260246000fd5b0492506020810190505b662386f26fc100008310611ddf57662386f26fc100008381611dd5577f4e487b7100000000000000000000000000000000000000000000000000000000600052601260045260246000fd5b0492506010810190505b6305f5e1008310611e2e576305f5e1008381611e24577f4e487b7100000000000000000000000000000000000000000000000000000000600052601260045260246000fd5b0492506008810190505b6127108310611e79576127108381611e6f577f4e487b7100000000000000000000000000000000000000000000000000000000600052601260045260246000fd5b0492506004810190505b60648310611ec25760648381611eb8577f4e487b7100000000000000000000000000000000000000000000000000000000600052601260045260246000fd5b0492506002810190505b600a8310611ed1576001810190505b80915050919050565b828054611ee690612d19565b90600052602060002090601f016020900481019282611f085760008555611f4f565b82601f10611f2157805160ff1916838001178555611f4f565b82800160010185558215611f4f579182015b82811115611f4e578251825591602001919060010190611f33565b5b509050611f5c9190611f60565b5090565b5b80821115611f79576000816000905550600101611f61565b5090565b6000611f90611f8b84612acf565b612aaa565b90508083825260208201905082856020860282011115611faf57600080fd5b60005b85811015611ff957813567ffffffffffffffff811115611fd157600080fd5b808601611fde8982612127565b85526020850194506020840193505050600181019050611fb2565b5050509392505050565b600061201661201184612afb565b612aaa565b90508281526020810184848401111561202e57600080fd5b612039848285612cd7565b509392505050565b600061205461204f84612b2c565b612aaa565b90508281526020810184848401111561206c57600080fd5b612077848285612cd7565b509392505050565b60008135905061208e8161321d565b92915050565b600082601f8301126120a557600080fd5b81356120b5848260208601611f7d565b91505092915050565b6000813590506120cd81613234565b92915050565b6000813590506120e28161324b565b92915050565b6000815190506120f78161324b565b92915050565b600082601f83011261210e57600080fd5b813561211e848260208601612003565b91505092915050565b600082601f83011261213857600080fd5b8135612148848260208601612041565b91505092915050565b60008135905061216081613262565b92915050565b60006020828403121561217857600080fd5b60006121868482850161207f565b91505092915050565b600080604083850312156121a257600080fd5b60006121b08582860161207f565b92505060206121c18582860161207f565b9150509250929050565b6000806000606084860312156121e057600080fd5b60006121ee8682870161207f565b93505060206121ff8682870161207f565b925050604061221086828701612151565b9150509250925092565b6000806000806080858703121561223057600080fd5b600061223e8782880161207f565b945050602061224f8782880161207f565b935050604061226087828801612151565b925050606085013567ffffffffffffffff81111561227d57600080fd5b612289878288016120fd565b91505092959194509250565b600080604083850312156122a857600080fd5b60006122b68582860161207f565b92505060206122c7858286016120be565b9150509250929050565b600080604083850312156122e457600080fd5b60006122f28582860161207f565b925050602061230385828601612151565b9150509250929050565b60006020828403121561231f57600080fd5b600082013567ffffffffffffffff81111561233957600080fd5b61234584828501612094565b91505092915050565b60006020828403121561236057600080fd5b600061236e848285016120d3565b91505092915050565b60006020828403121561238957600080fd5b6000612397848285016120e8565b91505092915050565b6000602082840312156123b257600080fd5b600082013567ffffffffffffffff8111156123cc57600080fd5b6123d884828501612127565b91505092915050565b6000602082840312156123f357600080fd5b600061240184828501612151565b91505092915050565b6000806040838503121561241d57600080fd5b600061242b85828601612151565b925050602061243c85828601612151565b9150509250929050565b60006124528383612767565b60208301905092915050565b61246781612c63565b82525050565b600061247882612b6d565b6124828185612b9b565b935061248d83612b5d565b8060005b838110156124be5781516124a58882612446565b97506124b083612b8e565b925050600181019050612491565b5085935050505092915050565b6124d481612c75565b82525050565b60006124e582612b78565b6124ef8185612bac565b93506124ff818560208601612ce6565b61250881612e52565b840191505092915050565b600061251e82612b83565b6125288185612bbd565b9350612538818560208601612ce6565b61254181612e52565b840191505092915050565b600061255782612b83565b6125618185612bce565b9350612571818560208601612ce6565b80840191505092915050565b600061258a602d83612bbd565b915061259582612e63565b604082019050919050565b60006125ad603283612bbd565b91506125b882612eb2565b604082019050919050565b60006125d0602583612bbd565b91506125db82612f01565b604082019050919050565b60006125f3601c83612bbd565b91506125fe82612f50565b602082019050919050565b6000612616602483612bbd565b915061262182612f79565b604082019050919050565b6000612639601983612bbd565b915061264482612fc8565b602082019050919050565b600061265c602983612bbd565b915061266782612ff1565b604082019050919050565b600061267f602e83612bbd565b915061268a82613040565b604082019050919050565b60006126a2602083612bbd565b91506126ad8261308f565b602082019050919050565b60006126c5601883612bbd565b91506126d0826130b8565b602082019050919050565b60006126e8602183612bbd565b91506126f3826130e1565b604082019050919050565b600061270b603d83612bbd565b915061271682613130565b604082019050919050565b600061272e603183612bbd565b91506127398261317f565b604082019050919050565b6000612751602283612bbd565b915061275c826131ce565b604082019050919050565b61277081612ccd565b82525050565b61277f81612ccd565b82525050565b6000612791828561254c565b915061279d828461254c565b91508190509392505050565b60006020820190506127be600083018461245e565b92915050565b60006060820190506127d9600083018661245e565b6127e6602083018561245e565b6127f36040830184612776565b949350505050565b6000608082019050612810600083018761245e565b61281d602083018661245e565b61282a6040830185612776565b818103606083015261283c81846124da565b905095945050505050565b600060408201905061285c600083018561245e565b6128696020830184612776565b9392505050565b6000602082019050818103600083015261288a818461246d565b905092915050565b60006020820190506128a760008301846124cb565b92915050565b600060208201905081810360008301526128c78184612513565b905092915050565b600060208201905081810360008301526128e88161257d565b9050919050565b60006020820190508181036000830152612908816125a0565b9050919050565b60006020820190508181036000830152612928816125c3565b9050919050565b60006020820190508181036000830152612948816125e6565b9050919050565b6000602082019050818103600083015261296881612609565b9050919050565b600060208201905081810360008301526129888161262c565b9050919050565b600060208201905081810360008301526129a88161264f565b9050919050565b600060208201905081810360008301526129c881612672565b9050919050565b600060208201905081810360008301526129e881612695565b9050919050565b60006020820190508181036000830152612a08816126b8565b9050919050565b60006020820190508181036000830152612a28816126db565b9050919050565b60006020820190508181036000830152612a48816126fe565b9050919050565b60006020820190508181036000830152612a6881612721565b9050919050565b60006020820190508181036000830152612a8881612744565b9050919050565b6000602082019050612aa46000830184612776565b92915050565b6000612ab4612ac5565b9050612ac08282612d4b565b919050565b6000604051905090565b600067ffffffffffffffff821115612aea57612ae9612e23565b5b602082029050602081019050919050565b600067ffffffffffffffff821115612b1657612b15612e23565b5b612b1f82612e52565b9050602081019050919050565b600067ffffffffffffffff821115612b4757612b46612e23565b5b612b5082612e52565b9050602081019050919050565b6000819050602082019050919050565b600081519050919050565b600081519050919050565b600081519050919050565b6000602082019050919050565b600082825260208201905092915050565b600082825260208201905092915050565b600082825260208201905092915050565b600081905092915050565b6000612be482612ccd565b9150612bef83612ccd565b9250827fffffffffffffffffffffffffffffffffffffffffffffffffffffffffffffffff03821115612c2457612c23612dc5565b5b828201905092915050565b6000612c3a82612ccd565b9150612c4583612ccd565b925082821015612c5857612c57612dc5565b5b828203905092915050565b6000612c6e82612cad565b9050919050565b60008115159050919050565b60007fffffffff0000000000000000000000000000000000000000000000000000000082169050919050565b600073ffffffffffffffffffffffffffffffffffffffff82169050919050565b6000819050919050565b82818337600083830152505050565b60005b83811015612d04578082015181840152602081019050612ce9565b83811115612d13576000848401525b50505050565b60006002820490506001821680612d3157607f821691505b60208210811415612d4557612d44612df4565b5b50919050565b612d5482612e52565b810181811067ffffffffffffffff82111715612d7357612d72612e23565b5b80604052505050565b6000612d8782612ccd565b91507fffffffffffffffffffffffffffffffffffffffffffffffffffffffffffffffff821415612dba57612db9612dc5565b5b600182019050919050565b7f4e487b7100000000000000000000000000000000000000000000000000000000600052601160045260246000fd5b7f4e487b7100000000000000000000000000000000000000000000000000000000600052602260045260246000fd5b7f4e487b7100000000000000000000000000000000000000000000000000000000600052604160045260246000fd5b6000601f19601f8301169050919050565b7f4552433732313a2063616c6c6572206973206e6f7420746f6b656e206f776e6560008201527f72206f7220617070726f76656400000000000000000000000000000000000000602082015250565b7f4552433732313a207472616e7366657220746f206e6f6e20455243373231526560008201527f63656976657220696d706c656d656e7465720000000000000000000000000000602082015250565b7f4552433732313a207472616e736665722066726f6d20696e636f72726563742060008201527f6f776e6572000000000000000000000000000000000000000000000000000000602082015250565b7f4552433732313a20746f6b656e20616c7265616479206d696e74656400000000600082015250565b7f4552433732313a207472616e7366657220746f20746865207a65726f2061646460008201527f7265737300000000000000000000000000000000000000000000000000000000602082015250565b7f4552433732313a20617070726f766520746f2063616c6c657200000000000000600082015250565b7f4552433732313a2061646472657373207a65726f206973206e6f74206120766160008201527f6c6964206f776e65720000000000000000000000000000000000000000000000602082015250565b7f45524337323155524953746f726167653a2055524920736574206f66206e6f6e60008201527f6578697374656e7420746f6b656e000000000000000000000000000000000000602082015250565b7f4552433732313a206d696e7420746f20746865207a65726f2061646472657373600082015250565b7f4552433732313a20696e76616c696420746f6b656e2049440000000000000000600082015250565b7f4552433732313a20617070726f76616c20746f2063757272656e74206f776e6560008201527f7200000000000000000000000000000000000000000000000000000000000000602082015250565b7f4552433732313a20617070726f76652063616c6c6572206973206e6f7420746f60008201527f6b656e206f776e6572206f7220617070726f76656420666f7220616c6c000000602082015250565b7f4552433732313a207472616e736665722063616c6c6572206973206e6f74206f60008201527f776e6572206e6f7220617070726f766564000000000000000000000000000000602082015250565b7f5468697320746f6b656e2063616e206e6f74206265207472616e73666572726560008201527f6421000000000000000000000000000000000000000000000000000000000000602082015250565b61322681612c63565b811461323157600080fd5b50565b61323d81612c75565b811461324857600080fd5b50565b61325481612c81565b811461325f57600080fd5b50565b61326b81612ccd565b811461327657600080fd5b5056fea2646970667358221220c9ecb41ce903d5666838ad01b58ed94a711598e77ada62705aeb24a0e0e5eeef64736f6c63430008040033",
  "linkReferences": {},
  "deployedLinkReferences": {}
}